:0300000002004CAF
:200008000000E2FBEAF2802C0000E0FBEAF08024E6B50202EBF62200E2B50202EBF22200DE
:20002800E0B50202EBF02230F6E0A88220F5D3EAC6F582228B822230F6E6A88220F5D980EE
:01004800CFE8
:0300A5000200490D
:030049000204B3FB
:2000A800AE82AF837C007D00C3EC9EED9F50147AFB7B041ABAFF011BEA4B70F70CBC00E871
:2000C8000D80E522AF82C2B08F80D2B19000011200A8C2B19000020200A8AF82D2B08F8093
:2000E800D2B19000011200A8C2B19000020200A89000141200A87582381200CC75820C12FB
:2001080000CC7582061200CC7582011200CC9000020200A8AD82AE83AFF08D828E838FF080
:200128001205A1FC60188C820DBD00010EC007C006C0051200E2D005D006D00780DC22D28C
:2001480096D2979000011200A8C2969000011200A8C29722C296D2979000011200A8D296BB
:200168009000010200A8AF827E008F05530580ED24FF9296D297900001C007C0061200A8A8
:20018800C2979000011200A8D006D007EF2FFF0EBE080040D5D296D2979000011200A8A242
:2001A80096B39200E433F582C29722AF827E00D2967D00D297EE2EFCA296E4334CFEC2974C
:2001C8000DBD080040EDEFB401009201E43324FF9296D297900001C0061200A8D006C297D6
:2001E800D2968E8222E582FFC4540F75F00AA4FE740F5F2EF58222AD82AE83AFF0C007C090
:2002080006C0051201477582D012016E75820412016E12015C1201477582D112016E7582E4
:20022800011201B31201EDAC82D005D006D0078D828E838FF0EC1204F3AD08AE09AF0A7511
:200248008201C007C006C0051201B31201EDAC82D005D006D0078D828E838FF0EC1204F3B7
:20026800AD0BAE0CAF0D758200C007C006C0051201B31201EDAC82D005D006D0078D828EEC
:20028800838FF0EC1204F302015CD2A29000011200A8C2A2D2A09000011200A8C2A020A1FD
:2002A800FDD2A3859082C2A322120292AF827E00EF247EF511EE34FFF51290064012050E97
:2002C80075117D7512001205F3E5828583F024BCFE740235F0FF30E7047E007F00751164A9
:2002E8007512008E828F83C007C0061205F3AC82D006D00775110A7512008E828F83C007DB
:20030800C006C0041205F3AB82D004D006D00775F00AEB84ABF075110A7512008E828F83E1
:20032800C007C006C004C0031205BDAA82758201C0021200CC7582801200CC90062F75F08A
:200348008012011C7582C01200CC90063D75F08012011CD002D003D00474302CF582C003E7
:20036800C0021200E275822E1200E2D002D00374302BF582C0021200E2D00274302AF582EE
:200388001200E290064175F08012011CD006D007C3EE948AEF64809482401E74529E748358
:2003A8008FF063F08095F0401090064375F08012011CC2B2D2B3D2B522C3EE94C2EF6480A5
:2003C8009481400AEE948AEF64809482401EC374529E74838FF063F08095F0501FC3748444
:2003E8009E74838FF063F08095F0401090064875F08012011CD2B2C2B3D2B522900650754A
:20040800F08012011CD2B2D2B3C2B52275080F750900750A40750B10750C00750D40900067
:200428000E75F0401201FF7582011200CC7582801200CC90065575F08012011C7582C012FC
:2004480000CCAF0E75F00AEF842430F5821200E2AF0E75F00AEF84AFF074302FF5821200D0
:20046800E275822D1200E2AF0F75F00AEF842430F5821200E2AF0F75F00AEF84AFF0743038
:200488002FF5821200E275822D1200E2AF1075F00AEF842430F5821200E2AF1075F00AEF25
:2004A80084AFF074302FF5820200E21200F8C2B690065B75F08012011C9001F41200A87F9E
:2004C80000C0071202B19003E81200A8D0070FBF3C0040ED7F00C0071204149003E8120048
:0B04E800A8D0070FBF1E0040ED80D41D
:20062F005741544552205155414C4954590070483A002000476F6F64004E65757472616C69
:1C064F0000506F6F7200444154453A005472616E736665727320576174657200BC
:06007B00E478FFF6D8FD59
:200059007900E94400601B7A0090066B780175A000E493F2A308B8000205A0D9F4DAF275DC
:02007900A0FFE6
:1B04F30020F71130F6138883A88220F509F6A8837583002280FEF280F5F02208
:1D050E00E5828511F0A4C582C0F08512F0A4D0F025F0C5838511F0A42583F5832294
:20052B00E511451260467A01E51125E0F511E512334012F512E5829511E583951240030A55
:20054B0080E6C3E51213F512E51113F511C3E5829511F5F0E58395124005F58385F082C30C
:0D056B00E51213F512E51113F511DAE12286
:200081007800E84400600A790175A000E4F309D8FC7800E84400600C7900900001E4F0A37D
:0400A100D8FCD9FAB4
:200578007A10E4FBFCE58225E0F582E58333F583EB33FBEC33FCEB9511F5F0EC9512400685
:09059800FCABF0438201DADD2224
:0D004C0075812012062BE582600302004939
:1C05A10020F71430F6148883A88220F507E6A88375830022E280F7E49322E02269
:2005BD00C2D5E58330E70DD2D5E4C39582F582E49583F583E51230E70BE4C39511F511E45B
:1605DD009512F51212052B30D50BE4C39582F582E49583F583223D
:2005F300C2D5E58330E70DD2D5E4C39582F582E49583F583E51230E70DB2D5E4C39511F591
:1806130011E49512F51212057830D50BE4C39582F582E49583F58322C2
:04062B0075820022B2
:00000001FF
